{
  "_format": "hh-sol-artifact-1",
  "contractName": "Todolist",
  "sourceName": "contracts/Todolist.sol",
  "abi": [
    {
      "inputs": [],
      "stateMutability": "nonpayable",
      "type": "constructor"
    },
    {
      "anonymous": false,
      "inputs": [
        {
          "indexed": false,
          "internalType": "uint256",
          "name": "id",
          "type": "uint256"
        },
        {
          "indexed": false,
          "internalType": "bool",
          "name": "completed",
          "type": "bool"
        }
      ],
      "name": "TaskCompleted",
      "type": "event"
    },
    {
      "anonymous": false,
      "inputs": [
        {
          "indexed": false,
          "internalType": "uint256",
          "name": "id",
          "type": "uint256"
        },
        {
          "indexed": false,
          "internalType": "string",
          "name": "content",
          "type": "string"
        },
        {
          "indexed": false,
          "internalType": "bool",
          "name": "completed",
          "type": "bool"
        }
      ],
      "name": "TaskCreated",
      "type": "event"
    },
    {
      "inputs": [
        {
          "internalType": "uint256",
          "name": "_id",
          "type": "uint256"
        }
      ],
      "name": "checkTask",
      "outputs": [],
      "stateMutability": "nonpayable",
      "type": "function"
    },
    {
      "inputs": [],
      "name": "count",
      "outputs": [
        {
          "internalType": "uint256",
          "name": "",
          "type": "uint256"
        }
      ],
      "stateMutability": "view",
      "type": "function"
    },
    {
      "inputs": [
        {
          "internalType": "string",
          "name": "_content",
          "type": "string"
        }
      ],
      "name": "createTask",
      "outputs": [],
      "stateMutability": "nonpayable",
      "type": "function"
    },
    {
      "inputs": [
        {
          "internalType": "uint256",
          "name": "",
          "type": "uint256"
        }
      ],
      "name": "tasks",
      "outputs": [
        {
          "internalType": "uint256",
          "name": "id",
          "type": "uint256"
        },
        {
          "internalType": "string",
          "name": "content",
          "type": "string"
        },
        {
          "internalType": "bool",
          "name": "completed",
          "type": "bool"
        }
      ],
      "stateMutability": "view",
      "type": "function"
    }
  ],
  "bytecode": "0x6080604052600080553480156200001557600080fd5b506200005c6040518060400160405280600981526020017f54657374205461736b00000000000000000000000000000000000000000000008152506200006260201b60201c565b620003f0565b600080815480929190620000769062000333565b919050555060405180606001604052806000548152602001828152602001600015158152506001600080548152602001908152602001600020600082015181600001556020820151816001019080519060200190620000d79291906200013e565b5060408201518160020160006101000a81548160ff0219169083151502179055509050507f05d0fb833127fc08168556d0e7ca9554fc3f6bc843b3b7d2bf1c35aea6bab660600054826000604051620001339392919062000251565b60405180910390a150565b8280546200014c90620002fd565b90600052602060002090601f016020900481019282620001705760008555620001bc565b82601f106200018b57805160ff1916838001178555620001bc565b82800160010185558215620001bc579182015b82811115620001bb5782518255916020019190600101906200019e565b5b509050620001cb9190620001cf565b5090565b5b80821115620001ea576000816000905550600101620001d0565b5090565b620001f981620002b1565b82525050565b60006200020c8262000295565b620002188185620002a0565b93506200022a818560208601620002c7565b6200023581620003df565b840191505092915050565b6200024b81620002bd565b82525050565b600060608201905062000268600083018662000240565b81810360208301526200027c8185620001ff565b90506200028d6040830184620001ee565b949350505050565b600081519050919050565b600082825260208201905092915050565b60008115159050919050565b6000819050919050565b60005b83811015620002e7578082015181840152602081019050620002ca565b83811115620002f7576000848401525b50505050565b600060028204905060018216806200031657607f821691505b602082108114156200032d576200032c620003b0565b5b50919050565b60006200034082620002bd565b91507fffffffffffffffffffffffffffffffffffffffffffffffffffffffffffffffff82141562000376576200037562000381565b5b600182019050919050565b7f4e487b7100000000000000000000000000000000000000000000000000000000600052601160045260246000fd5b7f4e487b7100000000000000000000000000000000000000000000000000000000600052602260045260246000fd5b6000601f19601f8301169050919050565b6108c580620004006000396000f3fe608060405234801561001057600080fd5b506004361061004c5760003560e01c806306661abd14610051578063111002aa1461006f5780638d9776721461008b578063974e5d6d146100bd575b600080fd5b6100596100d9565b60405161006691906105e2565b60405180910390f35b61008960048036038101906100849190610521565b6100df565b005b6100a560048036038101906100a09190610562565b6101b5565b6040516100b493929190610626565b60405180910390f35b6100d760048036038101906100d29190610562565b610274565b005b60005481565b6000808154809291906100f190610791565b919050555060405180606001604052806000548152602001828152602001600015158152506001600080548152602001908152602001600020600082015181600001556020820151816001019080519060200190610150929190610401565b5060408201518160020160006101000a81548160ff0219169083151502179055509050507f05d0fb833127fc08168556d0e7ca9554fc3f6bc843b3b7d2bf1c35aea6bab6606000548260006040516101aa93929190610626565b60405180910390a150565b60016020528060005260406000206000915090508060000154908060010180546101de9061072e565b80601f016020809104026020016040519081016040528092919081815260200182805461020a9061072e565b80156102575780601f1061022c57610100808354040283529160200191610257565b820191906000526020600020905b81548152906001019060200180831161023a57829003601f168201915b5050505050908060020160009054906101000a900460ff16905083565b600060016000838152602001908152602001600020604051806060016040529081600082015481526020016001820180546102ae9061072e565b80601f01602080910402602001604051908101604052809291908181526020018280546102da9061072e565b80156103275780601f106102fc57610100808354040283529160200191610327565b820191906000526020600020905b81548152906001019060200180831161030a57829003601f168201915b505050505081526020016002820160009054906101000a900460ff1615151515815250509050806040015115816040019015159081151581525050806001600084815260200190815260200160002060008201518160000155602082015181600101908051906020019061039c929190610401565b5060408201518160020160006101000a81548160ff0219169083151502179055509050507fe21fa966ca5cd02748c0752352d18c48165e61cb55b4c29cccf924b5a95fcff18282604001516040516103f59291906105fd565b60405180910390a15050565b82805461040d9061072e565b90600052602060002090601f01602090048101928261042f5760008555610476565b82601f1061044857805160ff1916838001178555610476565b82800160010185558215610476579182015b8281111561047557825182559160200191906001019061045a565b5b5090506104839190610487565b5090565b5b808211156104a0576000816000905550600101610488565b5090565b60006104b76104b284610689565b610664565b9050828152602081018484840111156104cf57600080fd5b6104da8482856106ec565b509392505050565b600082601f8301126104f357600080fd5b81356105038482602086016104a4565b91505092915050565b60008135905061051b81610878565b92915050565b60006020828403121561053357600080fd5b600082013567ffffffffffffffff81111561054d57600080fd5b610559848285016104e2565b91505092915050565b60006020828403121561057457600080fd5b60006105828482850161050c565b91505092915050565b610594816106d6565b82525050565b60006105a5826106ba565b6105af81856106c5565b93506105bf8185602086016106fb565b6105c881610867565b840191505092915050565b6105dc816106e2565b82525050565b60006020820190506105f760008301846105d3565b92915050565b600060408201905061061260008301856105d3565b61061f602083018461058b565b9392505050565b600060608201905061063b60008301866105d3565b818103602083015261064d818561059a565b905061065c604083018461058b565b949350505050565b600061066e61067f565b905061067a8282610760565b919050565b6000604051905090565b600067ffffffffffffffff8211156106a4576106a3610838565b5b6106ad82610867565b9050602081019050919050565b600081519050919050565b600082825260208201905092915050565b60008115159050919050565b6000819050919050565b82818337600083830152505050565b60005b838110156107195780820151818401526020810190506106fe565b83811115610728576000848401525b50505050565b6000600282049050600182168061074657607f821691505b6020821081141561075a57610759610809565b5b50919050565b61076982610867565b810181811067ffffffffffffffff8211171561078857610787610838565b5b80604052505050565b600061079c826106e2565b91507fffffffffffffffffffffffffffffffffffffffffffffffffffffffffffffffff8214156107cf576107ce6107da565b5b600182019050919050565b7f4e487b7100000000000000000000000000000000000000000000000000000000600052601160045260246000fd5b7f4e487b7100000000000000000000000000000000000000000000000000000000600052602260045260246000fd5b7f4e487b7100000000000000000000000000000000000000000000000000000000600052604160045260246000fd5b6000601f19601f8301169050919050565b610881816106e2565b811461088c57600080fd5b5056fea2646970667358221220fd39d8d39b1d6a10fb4463a25e4a6087f1c90515000715f6490f5ad8dd574c5164736f6c63430008040033",
  "linkReferences": {},
  "deployedLinkReferences": {}
}